{
  "_format": "hh3-artifact-1",
  "contractName": "OffsetManager",
  "sourceName": "contracts/OffsetManager.sol",
  "abi": [
    {
      "inputs": [
        {
          "internalType": "address",
          "name": "_usdc",
          "type": "address"
        },
        {
          "internalType": "address",
          "name": "_carbonPoints",
          "type": "address"
        }
      ],
      "stateMutability": "nonpayable",
      "type": "constructor"
    },
    {
      "inputs": [
        {
          "internalType": "uint256",
          "name": "usdcAmount",
          "type": "uint256"
        }
      ],
      "name": "buyOffsets",
      "outputs": [],
      "stateMutability": "nonpayable",
      "type": "function"
    },
    {
      "inputs": [],
      "name": "carbonPoints",
      "outputs": [
        {
          "internalType": "contract CarbonPoints",
          "name": "",
          "type": "address"
        }
      ],
      "stateMutability": "view",
      "type": "function"
    },
    {
      "inputs": [],
      "name": "owner",
      "outputs": [
        {
          "internalType": "address",
          "name": "",
          "type": "address"
        }
      ],
      "stateMutability": "view",
      "type": "function"
    },
    {
      "inputs": [],
      "name": "usdc",
      "outputs": [
        {
          "internalType": "contract IERC20",
          "name": "",
          "type": "address"
        }
      ],
      "stateMutability": "view",
      "type": "function"
    },
    {
      "inputs": [
        {
          "internalType": "address",
          "name": "to",
          "type": "address"
        },
        {
          "internalType": "uint256",
          "name": "amount",
          "type": "uint256"
        }
      ],
      "name": "withdraw",
      "outputs": [],
      "stateMutability": "nonpayable",
      "type": "function"
    }
  ],
  "bytecode": "0x608060405234801561000f575f80fd5b506040516109ed3803806109ed83398181016040528101906100319190610155565b815f806101000a81548173ffffffffffffffffffffffffffffffffffffffff021916908373ffffffffffffffffffffffffffffffffffffffff1602179055508060015f6101000a81548173ffffffffffffffffffffffffffffffffffffffff021916908373ffffffffffffffffffffffffffffffffffffffff1602179055503360025f6101000a81548173ffffffffffffffffffffffffffffffffffffffff021916908373ffffffffffffffffffffffffffffffffffffffff1602179055505050610193565b5f80fd5b5f73ffffffffffffffffffffffffffffffffffffffff82169050919050565b5f610124826100fb565b9050919050565b6101348161011a565b811461013e575f80fd5b50565b5f8151905061014f8161012b565b92915050565b5f806040838503121561016b5761016a6100f7565b5b5f61017885828601610141565b925050602061018985828601610141565b9150509250929050565b61084d806101a05f395ff3fe608060405234801561000f575f80fd5b5060043610610055575f3560e01c80633e413bee146100595780636c8f45c5146100775780638da5cb5b14610093578063e164fa0f146100b1578063f3fef3a3146100cf575b5f80fd5b6100616100eb565b60405161006e91906104af565b60405180910390f35b610091600480360381019061008c91906104ff565b61010e565b005b61009b6102bd565b6040516100a8919061054a565b60405180910390f35b6100b96102e2565b6040516100c69190610583565b60405180910390f35b6100e960048036038101906100e491906105c6565b610307565b005b5f8054906101000a900473ffffffffffffffffffffffffffffffffffffffff1681565b5f8111610150576040517f08c379a00000000000000000000000000000000000000000000000000000000081526004016101479061065e565b60405180910390fd5b5f805f9054906101000a900473ffffffffffffffffffffffffffffffffffffffff1673ffffffffffffffffffffffffffffffffffffffff166323b872dd3330856040518463ffffffff1660e01b81526004016101ae9392919061068b565b6020604051808303815f875af11580156101ca573d5f803e3d5ffd5b505050506040513d601f19601f820116820180604052508101906101ee91906106f5565b905080610230576040517f08c379a00000000000000000000000000000000000000000000000000000000081526004016102279061076a565b60405180910390fd5b60015f9054906101000a900473ffffffffffffffffffffffffffffffffffffffff1673ffffffffffffffffffffffffffffffffffffffff166372d1dc9433846040518363ffffffff1660e01b815260040161028c929190610788565b5f604051808303815f87803b1580156102a3575f80fd5b505af11580156102b5573d5f803e3d5ffd5b505050505050565b60025f9054906101000a900473ffffffffffffffffffffffffffffffffffffffff1681565b60015f9054906101000a900473ffffffffffffffffffffffffffffffffffffffff1681565b60025f9054906101000a900473ffffffffffffffffffffffffffffffffffffffff1673ffffffffffffffffffffffffffffffffffffffff163373ffffffffffffffffffffffffffffffffffffffff1614610396576040517f08c379a000000000000000000000000000000000000000000000000000000000815260040161038d906107f9565b60405180910390fd5b5f8054906101000a900473ffffffffffffffffffffffffffffffffffffffff1673ffffffffffffffffffffffffffffffffffffffff1663a9059cbb83836040518363ffffffff1660e01b81526004016103f0929190610788565b6020604051808303815f875af115801561040c573d5f803e3d5ffd5b505050506040513d601f19601f8201168201806040525081019061043091906106f5565b505050565b5f73ffffffffffffffffffffffffffffffffffffffff82169050919050565b5f819050919050565b5f61047761047261046d84610435565b610454565b610435565b9050919050565b5f6104888261045d565b9050919050565b5f6104998261047e565b9050919050565b6104a98161048f565b82525050565b5f6020820190506104c25f8301846104a0565b92915050565b5f80fd5b5f819050919050565b6104de816104cc565b81146104e8575f80fd5b50565b5f813590506104f9816104d5565b92915050565b5f60208284031215610514576105136104c8565b5b5f610521848285016104eb565b91505092915050565b5f61053482610435565b9050919050565b6105448161052a565b82525050565b5f60208201905061055d5f83018461053b565b92915050565b5f61056d8261047e565b9050919050565b61057d81610563565b82525050565b5f6020820190506105965f830184610574565b92915050565b6105a58161052a565b81146105af575f80fd5b50565b5f813590506105c08161059c565b92915050565b5f80604083850312156105dc576105db6104c8565b5b5f6105e9858286016105b2565b92505060206105fa858286016104eb565b9150509250929050565b5f82825260208201905092915050565b7f416d6f756e74206d757374206265203e203000000000000000000000000000005f82015250565b5f610648601283610604565b915061065382610614565b602082019050919050565b5f6020820190508181035f8301526106758161063c565b9050919050565b610685816104cc565b82525050565b5f60608201905061069e5f83018661053b565b6106ab602083018561053b565b6106b8604083018461067c565b949350505050565b5f8115159050919050565b6106d4816106c0565b81146106de575f80fd5b50565b5f815190506106ef816106cb565b92915050565b5f6020828403121561070a576107096104c8565b5b5f610717848285016106e1565b91505092915050565b7f55534443207472616e73666572206661696c65640000000000000000000000005f82015250565b5f610754601483610604565b915061075f82610720565b602082019050919050565b5f6020820190508181035f83015261078181610748565b9050919050565b5f60408201905061079b5f83018561053b565b6107a8602083018461067c565b9392505050565b7f4e6f74206f776e657200000000000000000000000000000000000000000000005f82015250565b5f6107e3600983610604565b91506107ee826107af565b602082019050919050565b5f6020820190508181035f830152610810816107d7565b905091905056fea26469706673582212202f606de9204a8c6c6db684a00ac5103178576f1dc9086cf6a5d4a0499a00e29564736f6c63430008140033",
  "linkReferences": {},
  "deployedLinkReferences": {},
  "immutableReferences": {},
  "inputSourceName": "project/contracts/OffsetManager.sol",
  "buildInfoId": "solc-0_8_20-75ac01ad59a8ed8a539956d29dc69ce7a372cd9c"
}